:020000040800F2
:100000001005002045010008A5270008A7270008C3
:10001000AB270008AF270008B32700080000000046
:10002000000000000000000000000000B7270008EA
:10003000B927000800000000BB270008BD27000802
:100040005F0100085F0100085F0100085F01000810
:100050005F0100085F0100085F0100085F01000800
:100060005F0100085F0100085F0100085F010008F0
:100070005F0100085F0100085F0100085F010008E0
:100080005F0100085F0100085F0100085F010008D0
:100090005F0100085F0100085F0100085F010008C0
:1000A0005F0100085F0100085F0100085F010008B0
:1000B0005F010008872A00085F0100085F0100084F
:1000C0005F0100085F0100085F0100085F01000890
:1000D0005F010008232300085F0100085F0100089A
:1000E0005F0100085F0100085F0100085F01000870
:1000F0005F0100085F0100085F0100085F01000860
:100100005F0100085F0100085F0100085F0100084F
:100110005F0100085F0100085F0100085F0100083F
:100120005F0100085F0100085F0100085F0100082F
:10013000DFF80CD002F0DAFC00480047BF230008CB
:10014000100500200648804706480047FEE7FEE706
:10015000FEE7FEE7FEE7FEE7FEE7FEE7FEE7FEE777
:1001600047020008310100080CB500200190009002
:100170006C48006840F480306A49086000BF6948F4
:10018000006800F4003000900198401C0190009835
:1001900018B90198B0F5A06FF1D16248006800F479
:1001A000003010B10120009001E000200090009884
:1001B000012843D15C48006840F010005A490860AB
:1001C0000846006820F0030008600846006840F018
:1001D0000200086053484068524948600846406839
:1001E00048600846406840F48060486008464068BF
:1001F00020F47C1048600846406840F4E8104860ED
:100200000846006840F08070086000BF45480068FC
:1002100000F000700028F9D04248406820F0030048
:10022000404948600846406840F00200486000BF0E
:100230003C48406800F00C000828F9D10CBD10B50E
:10024000FFF792FF10BD10B53648006840F001007E
:1002500034490860084640683449084031494860DC
:1002600008460068324908402E4908600846006880
:1002700020F4802008600846406820F4FE004860B2
:100280004FF41F008860FFF7DAFF4FF00060294944
:10029000086010BD10B5002100200022214B5B68D2
:1002A00003F00C0121B1042906D0082928D107E068
:1002B000214B224C236027E01F4B204C236023E07E
:1002C000184B5B6803F47010164B5B6803F48032C4
:1002D000022303EB904022B9194B4343174C236090
:1002E0000DE0104B5B6803F4003323B1144B434320
:1002F000124C236003E0104B4343104C236003E097
:100300000D4B0E4C236000BF00BF064B5B68C3F370
:1003100003130C4CE15C094B1B68CB40074C23607A
:1003200010BD000000100240002002400000FFF855
:10033000FFFFF6FE08ED00E000127A00000000204A
:1003400000093D000400002031490143314A116099
:10035000704770B5002100230F22C47804B32D4CE0
:10036000246804F4E064C4F5E064210AC1F10403E4
:10037000CA40447804FA03F1847814402143090107
:10038000254C0678A155047804F01F050124AC40E3
:1003900005786D11AD0005F1E025C5F8004109E0D3
:1003A000047804F01F050124AC401C4D067876113A
:1003B00045F8264070BD1A4A0A400243154B1B1FE0
:1003C0001A60704739B1134A121D12680243114B6B
:1003D0001B1D1A6006E00F4A121D126882430D4B66
:1003E0001B1D1A607047042808D14FF0E0210969ED
:1003F00041F004014FF0E022116107E04FF0E021ED
:10040000096921F004014FF0E022116170470000FA
:100410000000FA050CED00E000E400E080E100E0FF
:1004200080FFFF1F10B50446FA48844208D101211D
:10043000401500F055FD0021601500F051FD17E05A
:10044000F548844208D10121001500F049FD002142
:10045000201500F045FD0BE0F048844208D1012151
:10046000C80300F03DFD00214FF4004000F038FDCE
:1004700010BD30B50246002000235068E84C2040F3
:100480000D790C6844EA0524204350609068E54CDF
:100490002040D1E902542C434D7944EA45042043DD
:1004A0009060D06A20F470000C7C641EE4B2234398
:1004B00040EA0350D06230BD0021016001714171FA
:1004C0008160C16001210174704721B1826842F0EE
:1004D0000102826003E0826822F0010282607047BC
:1004E00021B1826842F48072826003E0826822F463
:1004F00080728260704710B50023CBB21AB1446895
:100500001C43446002E044689C43446010BD816821
:1005100041F0080181607047014600208A6802F0BE
:1005200008020AB1012000E000207047816841F014
:10053000040181607047014600208A6802F00402CD
:100540000AB1012000E00020704721B1826842F426
:10055000A002826003E0826822F4A00282607047F9
:10056000014600208A6802F480020AB1012000E0FE
:100570000020704710B50A4600210023416821F48D
:100580006041531E41EA4331416010BD21B14268D0
:1005900042F40062426003E0426822F4006242607A
:1005A0007047F0B504460D4600200021092D11DDED
:1005B000E068A5F10A0606EB4607072606FA07F1EA
:1005C0008843A5F10A0606EB460603FA06F108433E
:1005D000E0600CE0206905EB4507072606FA07F105
:1005E000884305EB450603FA06F108432061072A14
:1005F0000FDA606B561E06EB86071F2606FA07F118
:100600008843561E06EB860605FA06F1084360632A
:1006100022E00D2A0FDA206BD61F06EB86071F2675
:1006200006FA07F18843D61F06EB860605FA06F19F
:100630000843206310E0E06AA2F10D0606EB86078E
:100640001F2606FA07F18843A2F10D0606EB86067F
:1006500005FA06F10843E062F0BD21B1826842F478
:100660008012826003E0826822F480128260704708
:100670000146C86C80B2704766484C3000687047CD
:1006800021B1426842F48062426003E0426822F491
:1006900080624260704721B1426842F480524260F9
:1006A00003E0426822F48052426070470A4600210B
:1006B000816821F4E04111438160704721B1826873
:1006C00042F40042826003E0826822F400428260C9
:1006D000704721B1826842F40212826003E08268AE
:1006E00022F4021282607047014600208A6802F4F8
:1006F00000120AB1012000E000207047F0B5044666
:100700001546002000220026092911DDE068A1F12C
:100710000A0707EB470C072707FA0CF29043A1F1F1
:100720000A0707EB470703FA07F21043E0600CE003
:10073000206901EB410C072707FA0CF2904301EB0B
:10074000410703FA07F210432061A06BC0F3015682
:10075000EF1C06F1010CA7EB0C0707EB870C1F271A
:1007600007FA0CF29043EF1C06F1010CA7EB0C0703
:1007700007EB870701FA07F21043A063F0BD10B53D
:100780000A4600210023816B21F44011531E41EAE7
:100790000351816310BD08B5002300930090009BB6
:1007A0000B440093009B1A6008BD08B50246002068
:1007B0000090009201F12800009B184400900098DE
:1007C000006880B208BD0A4600214168164B1940F6
:1007D0001143416070474162826270470A460021BE
:1007E000416821F01F0111434160704740B1094940
:1007F0000831096841F40001064A0832116007E037
:1008000004490831096821F40001024A08321160E4
:10081000704700000024014000280140003C0140D6
:10082000FFFEF0FFFDF7F1FFFFFD3FFF0246002056
:1008300013680B400BB1012000E000207047CA4351
:100840000260704770B502460020002300240B129E
:100850005568CEB205EA060415681D4015B10CB105
:10086000012000E0002070BD00220A12D343036083
:100870007047000010B50446CC48844208D10121DD
:10088000042000F02DFB0021042000F029FB46E0AD
:10089000C748844208D10121082000F021FB002133
:1008A000082000F01DFB3AE0C248844208D1012133
:1008B000102000F015FB0021102000F011FB2EE0AD
:1008C000BD48844208D10121202000F009FB00210D
:1008D000202000F005FB22E0B848844208D1012125
:1008E000402000F0FDFA0021402000F0F9FA16E067
:1008F000B348844208D10121802000F0F1FA0021A0
:10090000802000F0EDFA0AE0AE48844207D10121D0
:10091000801500F0E5FA0021A01500F0E1FA10BD05
:1009200010B50121084600F0DBFA0021012000F09B
:10093000D7FA10BD2DE9F04102460025002600201F
:1009400000230024002791F803C00CF00F0591F854
:1009500003C00CF0100CBCF1000F03D091F802C0E2
:100960004CEA050591F800C0BCF1000F31D01468C5
:1009700000202BE04FF0010C0CFA00F3B1F800C09E
:100980000CEA03069E4220D183004FF00F0C0CFAB4
:1009900003F7BC4305FA03FC4CEA040491F803C0D6
:1009A000BCF1280F06D14FF0010C0CFA00FCC2F884
:1009B00014C00AE091F803C0BCF1480F05D14FF014
:1009C000010C0CFA00FCC2F810C0401C0828D1D35E
:1009D0001460B1F800C0BCF1FF0F34DD5468002092
:1009E0002EE000F1080C4FF0010808FA0CF3B1F802
:1009F00000C00CEA03069E4221D183004FF00F0C89
:100A00000CFA03F7BC4305FA03FC4CEA040491F822
:100A100003C0BCF1280F05D100F1080C08FA0CF84E
:100A2000C2F8148091F803C0BCF1480F07D100F15F
:100A3000080C4FF0010808FA0CF8C2F81080401CAE
:100A40000828CED35460BDE8F0814FF6FF710180D5
:100A5000022181700421C170704702460020936812
:100A60000B400BB1012000E0002070470146886870
:100A700080B2704702460020D3680B400BB10120C2
:100A800000E0002070470146C86880B270470161ED
:100A90007047416170470AB1016100E041617047F0
:100AA000C16070474FF480320A4382618161826184
:100AB00082698269704702460020434B18684FF6EE
:100AC0008073184040EA021008433F4B186070479B
:100AD0003E49C8617047F0B50A4600230024002152
:100AE000002500F00046B6F1004F02D1364EF16904
:100AF00001E0354E7168C0F3034583B200F440163F
:100B0000B6F5401F08D121F070612F4E766826F0AF
:100B100070662D4F7E6012E000F48016B6F5801FDF
:100B200006D1032606FA05F4A14341F0706106E000
:100B3000460D360103FA06F6B14341F0706122B169
:100B4000460D360103FA06F6314300F00046B6F1D1
:100B5000004F02D11C4EF16101E01B4E7160F0BDEF
:100B600030B500228B071C0F0F2303FA04F2164B3B
:100B700008338C1053F824309343134C08348D10F1
:100B800044F8253023468C1053F824308C07240F6A
:100B900000FA04F423430C4C08348D1044F825303B
:100BA00030BD0A49DC310860704700000008014090
:100BB000000C0140001001400014014000180140E9
:100BC000001C0140002001400000014000002042C4
:100BD000DF48006840F00100DD49086008464068D1
:100BE000DC490840DA49486008460068DA490840AC
:100BF000D74908600846006820F48020086008464D
:100C0000406820F4FE0048604FF41F008860704781
:100C1000CF49096821F48031CD4A11601146096835
:100C200021F480211160B0F5803F03D0B0F5802F12
:100C30000ED106E0C649096841F48031C44A11600A
:100C400007E0C349096841F4A021C14A116000E0EE
:100C500000BF00BF704710B50146002200230020EE
:100C60004A11012A02D1BA4C236806E0022A02D1B5
:100C7000B74C236A01E0B64C636A01F01F020124FD
:100C800094401C400CB1012000E0002010BD38B59C
:100C9000002000900024002500BF3120FFF7DBFF7B
:100CA00005460098401C00900098B0F5A06F01D058
:100CB000002DF2D03120FFF7CEFF08B1012400E073
:100CC0000024204638BD01460020A14A106820F0CB
:100CD000F80040EAC10010607047A0490860704702
:100CE000024600209A4B586820F47C1042EA010327
:100CF0001843974B586070479849086670470146FB
:100D00000020934A506820F0030008435060704769
:100D10008F48406800F00C007047014600208C4A64
:100D2000506820F0F00008435060704701460020F2
:100D3000874A506820F4E0600843506070470146DD
:100D40000020834A506820F4605040EAC10050609F
:100D5000704729B17E4A527A02437D4B5A7204E0B1
:100D60007B4A527A82437A4B5A7270477B49D83118
:100D70000860704701460020754A506820F44040E2
:100D80000843506070470021714A20321170704A48
:100D900082F82010012802D004280AD104E00121A1
:100DA0006B4A2032117005E00521694A203211702A
:100DB00000E000BF00BF70476949086070476449A0
:100DC000096A0143624A1162704765494439086003
:100DD000704730B500210022002400235C4D6D686F
:100DE00005F00C0121B1042905D0082923D105E023
:100DF0005C4D056022E05B4D05601FE0544D6D6861
:100E000005F47012524D6D6805F48034022505EB2F
:100E100092421CB9544D554305600BE04C4D6D6832
:100E200005F400351DB1504D5543056002E04D4DB0
:100E30005543056002E04B4D056000BF00BF444DC7
:100E40006D6805F0F0010909484D6B5C0568DD40EF
:100E500045603F4D6D6805F4E061090A434D6B5CE8
:100E60004568DD4085603A4D6D6805F46051C90AFA
:100E70003E4D6B5C4568DD40C560354D6D6805F4E1
:100E80004041890B3A4D6B5CC568B5FBF3F50561D4
:100E900030BD29B12E4A526902432D4B5A6104E0FC
:100EA0002B4A526982432A4B5A61704729B1284A1A
:100EB00092690243264B9A6104E0254A9269824373
:100EC000234B9A61704729B1214AD2690243204BD2
:100ED000DA6104E01E4AD26982431D4BDA61704731
:100EE00029B11B4AD2680243194BDA6004E0184A60
:100EF000D2688243164BDA60704729B1144A1269EE
:100F00000243134B1A6104E0114A12698243104BE9
:100F10001A61704712494039086070470F49C86428
:100F200070470B49C87170470948406A40F08070AB
:100F300007494862704701460020054A92680A4006
:100F40000AB1012000E00020704701498872704713
:100F5000001002400000FFF8FFFFF6FE00004242D2
:100F60008004424200127A0000093D001400002073
:100F70002400002010B50446FE48844208D1012117
:100F8000C014FFF7ADFF0021E014FFF7A9FFC4E094
:100F9000B4F1804F08D101210846FFF7AEFF0021D0
:100FA0000120FFF7AAFFB8E0F348844208D10121ED
:100FB0000220FFF7A2FF00210220FFF79EFFACE016
:100FC000EE48844208D101210420FFF796FF00215A
:100FD0000420FFF792FFA0E0E948844208D10121F4
:100FE0000820FFF78AFF00210820FFF786FF94E022
:100FF000E448844208D101211020FFF77EFF002140
:101000001020FFF77AFF88E0DF48844208D10121F1
:101010002020FFF772FF00212020FFF76EFF7CE009
:10102000DA48844208D101214014FFF759FF00211A
:101030006014FFF755FF70E0D548844209D10121C3
:10104000C804FFF74DFF00214FF40020FFF748FFD1
:1010500063E0D048844209D101210805FFF740FF31
:1010600000214FF48010FFF73BFF56E0CA4884424E
:1010700009D101214805FFF733FF00214FF400108B
:10108000FFF72EFF49E0C548844208D101214020E6
:10109000FFF733FF00214020FFF72FFF3DE0C0485E
:1010A000844208D101218020FFF727FF0021802002
:1010B000FFF723FF31E0BB48844208D101218015AE
:1010C000FFF71BFF0021A015FFF717FF25E0B6482B
:1010D000844209D101210804FFF702FF00214FF4E7
:1010E0008030FFF7FDFE18E0B048844209D10121AD
:1010F0004804FFF7F5FE00214FF40030FFF7F0FE43
:101100000BE0AB48844208D101218804FFF7E8FED8
:1011100000214FF48020FFF7E3FE10BD002202887B
:10112000944B98420ED0994B98420BD0B0F1804F1F
:1011300008D0914B984205D0904B984202D0904BEA
:10114000984204D14FF68F731A404B881A438D4B47
:10115000984207D08C4B984204D04FF6FF431A4078
:10116000CB881A4302808B8883850B880385814B4B
:1011700098420BD0854B984208D08B4B984205D0B3
:101180008A4B984202D08A4B984201D10B7A03864F
:1011900001238382704770B5002400220023058C50
:1011A0004FF6FE7635400584028C8388048B4FF61B
:1011B0008F752C40B51E2C400D882C43751E2A407F
:1011C0000D892A434D882A436A4DA8420BD06F4DA2
:1011D000A84208D0744DA84205D0744DA84202D050
:1011E000734DA84213D14FF6F7752A404D892A4313
:1011F0004FF6FB752A408D882A434FF6FF652B403A
:101200004FF6FF552B408D892B43CD892B4383808F
:101210000483CD888586028470BD70B500240022C9
:101220000023058C4FF6EF7635400584028C8388C9
:10123000048B48F6FF752C404FF6FF452C400D8877
:101240004FF6FF7606EA05252C434FF6DF752A4058
:101250000D8906EA05152A434D8806EA05152A4335
:10126000444DA84202D0494DA8421DD14FF67F758A
:101270002A404D894FF6FF7606EA05152A434FF6B8
:10128000BF752A408D8806EA05152A434FF6FF35BB
:101290002B404FF2FF752B408D8906EA85052B43C5
:1012A000CD8906EA85052B4383800483CD88058795
:1012B000028470BD70B5002400220023058C4FF617
:1012C000FF6635400584028C8388848B4FF68F75CA
:1012D0002C404FF6FC752C400D882C434FF6FF55E3
:1012E0002A400D894FF6FF7606EA05252A434D88E8
:1012F00006EA05252A431F4DA84202D0234DA842E5
:101300001DD14FF2FF752A404D894FF6FF7606EA50
:1013100005252A434FF6FF352A408D8806EA052524
:101320002A434EF6FF752B404DF6FF752B408D89F5
:1013300006EA05152B43CD8906EA05152B43838064
:101340008483CD888587028470BD70B50022002318
:101350000024058C4EF6FF7635400584038C848886
:10136000828B48F6FF752A404FF6FF452A400D88CC
:1013700020E00000002C0140000400400008004074
:10138000000C0040001000400014004000340140F8
:10139000004C014000500140005401400018004042
:1013A000001C00400020004000400140004401407B
:1013B000004801404FF6FF7606EA05252A434DF620
:1013C000FF752B400D8906EA05352B434D8806EA4B
:1013D00005352B43FA4DA84202D0FA4DA84208D158
:1013E0004BF6FF752C408D894FF6FF7606EA851582
:1013F0002C4384808283CD88A0F84050038470BD44
:10140000828B4FF2FF331A408283828B4FF6FF7339
:1014100003EA01231A4382837047F0B50C46154650
:10142000002200210026078C4EF6FF7C07EA0C07FD
:101430000784828B018C4FF6FF7707EA043640F66B
:10144000FF473A404FF6FF7707EA05273A434FF642
:10145000FF7707EA03373A43D94FB8420ED0D94F46
:10146000B8420BD0B0F1804F08D0D74FB84205D06A
:10147000D64FB84202D0D64FB84206D14DF6FF77CC
:10148000394046F48057394305E047F6FF57394065
:1014900044F48057394382830184F0BD828B4FF638
:1014A000F3731A408283828B0A4382837047F0B5BC
:1014B0000C461546002200210026078C4FF6FF6CD3
:1014C00007EA0C070784828B018C4FF6FF7707EA47
:1014D00004264FF60C773A404FF6FF7707EA0317DA
:1014E0002F433A43B64FB8420ED0B64FB8420BD056
:1014F000B0F1804F08D0B44FB84205D0B34FB842D6
:1015000002D0B34FB84206D14FF6FF57394046F4E8
:101510008077394305E04FF2FF57394044F4807734
:10152000394382830184F0BD028B4FF2FF331A40AE
:101530000283028B4FF6FF7303EA01231A430283EF
:101540007047F0B50C461546002200210026078C96
:101550004FF6EF7C07EA0C070784028B018C4FF6ED
:10156000FF7707EA041640F6FF473A404FF6FF7749
:1015700007EA03373A434FF6FF7707EA05273A436E
:101580008F4FB8420ED08F4FB8420BD0B0F1804F82
:1015900008D08D4FB84205D08C4FB84202D08C4F46
:1015A000B84206D14FF6DF77394046F0100739438D
:1015B00005E04FF65F77394044F010073943028366
:1015C0000184F0BD028B4FF6F3731A400283028B45
:1015D0000A4302837047F0B50C46154600220021ED
:1015E000068C4FF6FE773E400684028B018C4FF648
:1015F0000C7632407E1C06EA03162E433243704EB0
:10160000B0420ED06F4EB0420BD0B0F1804F08D038
:101610006D4EB04205D06D4EB04202D06C4EB0421D
:1016200006D14FF6FD76314044F00106314305E026
:101630004FF6F576314044F00106314302830184D0
:10164000F0BD70B505460C465D4885420ED05D483C
:1016500085420BD0B5F1804F08D05B48854205D05C
:101660005A48854202D05A48854200D100E000BF66
:10167000208850B92389A28861882846FFF7ABFFEC
:10168000E1882846FFF79EFF25E0208804280AD13C
:101690002389A28861882846FFF753FFE1882846FE
:1016A000FFF742FF17E0208808280AD12389A28883
:1016B00061882846FFF7FBFEE1882846FFF7EEFE2B
:1016C00009E02389A28861882846FFF7A6FEE18801
:1016D0002846FFF795FE70BD2DE9F04105460C4602
:1016E00000260127608808B9022600E00026A088AD
:1016F000012801D1022700E001272088A0B9238911
:10170000A28861882846FFF766FFE1882846FFF730
:1017100059FF23893A4631462846FFF712FFE188F0
:101720002846FFF701FF13E02389A2886188284635
:10173000FFF707FFE1882846FFF7F6FE23893A46C0
:1017400031462846FFF747FFE1882846FFF73AFF72
:10175000BDE8F0810A884B881A438B881A43CB88EE
:101760001A430B891A434B891A438B891A43A0F8F1
:10177000442070474FF6FF71818000210180C180B5
:101780004180017270470021018041808180C180C9
:10179000018141818181C1817047002101804180A7
:1017A000012181800021C1800181704700210180D9
:1017B00041808180C1800181418181817047000029
:1017C000002C0140003401400004004000080040AB
:1017D000000C004021B1028842F00102028004E0C6
:1017E00002884FF6FE731A400280704731B1B0F89C
:1017F000442042F40042A0F8442005E0B0F8442020
:10180000C2F30E02A0F8442070471AB183890B433B
:10181000838102E083898B43838170478182704793
:1018200041EA0203A0F8483070471AB183890B439C
:10183000838102E083898B438381704701894FF65E
:10184000F8721140018170470A46002101894FF664
:101850008F73194011430181704730B504460D461E
:1018600029462046FFF7F0FF208940F0070020813D
:1018700030BD2DE9F04104460D4616461F46602D49
:1018800006D13B46012231462046FFF75AFE05E0CD
:101890003B46012231462046FFF79DFE2946204661
:1018A000FFF7D2FF208940F007002081BDE8F081DA
:1018B00030B50C4600210189C9B24FF6FF7505EA23
:1018C0000325154325432943018130BD2DE9F0410E
:1018D00005460E4617469846002443463A4631468A
:1018E0002846FFF7E5FF2C894FF6F870044044F0D6
:1018F00007044FF68F70044044F070042C81BDE85B
:10190000F081F0B504460D4616461F463B4632466A
:1019100029462046FFF7CCFF208940F480402081F3
:10192000F0BD0185828270470A46002101884FF68A
:101930008F731940114301807047F0B50C4615466E
:101940001E460021002200230189028B038C4FF6E2
:10195000F877394021434FF6FC473A4040F20117EF
:101960003A434FF6DD773B404FF6FF7707EA06171D
:101970002F433B43018102830384F0BD0A460021CB
:10198000018B4FF68F7319401143018370470A464C
:101990000021018B48F6FF7319404FF6FF7303EAED
:1019A00002231943018370470A460021818B4FF6B9
:1019B0008F7319401143818370470A460021818B40
:1019C00048F6FF7319404FF6FF7303EA02231943E9
:1019D0008183704721B1028842F08002028004E0D6
:1019E00002884FF67F731A400280704721B18288C7
:1019F00042F00402828004E082884FF6FB731A40B2
:101A00008280704721B1828842F00802828004E01F
:101A100082884FF6F7731A408280704721B182881E
:101A200042F00102828004E082884FF6FE731A4081
:101A3000828070470A460021018B4FF6F7731940E8
:101A40001143018370470A460021018B4FF2FF7357
:101A500019404FF6FF7303EA0223194301837047CD
:101A60000A460021818B4FF6F77319401143818399
:101A700070470A460021818B4FF2FF7319404FF6E1
:101A8000FF7303EA02231943818370470A4600214A
:101A9000018B4FF6FB7319401143018370470A46CF
:101AA0000021018B4FF6FF3319404FF6FF7303EA15
:101AB00002231943018370470A460021818B4FF6A8
:101AC000FB7319401143818370470A460021818BC3
:101AD0004FF6FF3319404FF6FF7303EA0223194311
:101AE000818370470A460021018B4FF67F731940AE
:101AF0001143018370470A460021018BC1F30E0197
:101B00004FF6FF7303EA02231943018370470A4625
:101B10000021818B4FF67F731940114381837047F9
:101B20000A460021818BC1F30E014FF6FF7303EAD1
:101B300002231943818370470A460021018C4FF626
:101B4000FD7319401143018470470A460021018C3E
:101B50004FF6F77319401143018470470A4600217C
:101B6000018C4FF6DF7319404FF6FF7303EA02133F
:101B70001943018470470A460021018C4FF67F7398
:101B800019404FF6FF7303EA0213194301847047AB
:101B90000A460021018C4FF6FF5319404FF6FF73A0
:101BA00003EA02231943018470470A460021018C8D
:101BB0004FF2FF7319404FF6FF7303EA02231943F4
:101BC000018470470A460021018C4DF6FF731940CD
:101BD0004FF6FF7303EA023319430184704730B5AF
:101BE000002301248C40A3B2048C9C430484048C05
:101BF00002FA01F5ADB22C43048430BD30B50023A8
:101C000004248C40A3B2048C9C430484048C02FA08
:101C100001F5ADB22C43048430BD70B503460020FD
:101C200000241846183001258D40ACB21D8CA54308
:101C30001D8409B1082909D100EB6100056825F070
:101C4000700505600568154305600EE00D1FC5F3BE
:101C50004E052844056825F4E045056005684FF603
:101C6000FF7606EA02263543056070BD21B1028881
:101C700042F00202028004E002884FF6FD731A402F
:101C80000280704721B1028842F00402028004E021
:101C900002884FF6FB731A400280704721B1828898
:101CA00042F08002828004E082884FF67F731A40FF
:101CB0008280704702884FF6F7731A4002800288CC
:101CC0000A430280704782884FF68F731A408280E1
:101CD00082880A438280704702894FF6F8731A405F
:101CE000028102890A430281704702894FF67F739D
:101CF0001A40028102890A43028170478184704739
:101D0000818570478186704701877047818770475A
:101D1000A0F84010704702884FF6FF431A40028037
:101D200002880A43028070470146888E7047014648
:101D3000088F70470146888F70470146B1F8400010
:101D400070470146888C70470146088D70470246EF
:101D50000020138A0B400BB1012000E000207047E7
:101D6000CA430282704730B5024600200023002497
:101D7000158A05EA0103958905EA010413B10CB13E
:101D8000012000E0002030BDCA43028270470000FD
:101D900010B50446FB48844209D101218803FFF7AE
:101DA0009FF800214FF48040FFF79AF832E0F648A0
:101DB000844209D101214804FFF79FF800214FF424
:101DC0000030FFF79AF825E0F048844209D101215C
:101DD0008804FFF792F800214FF48020FFF78DF878
:101DE00018E0EB48844209D10121C804FFF785F8C7
:101DF00000214FF40020FFF780F80BE0E548844213
:101E000008D101210805FFF778F800214FF4801070
:101E1000FFF773F810BD2DE9F04786B005460E4672
:101E20000024A24600BFA1460027B08900B100BF30
:101E30002F462C8A4CF6FF700440F08804432C8215
:101E4000AC894EF6F3100440B0883189084371899B
:101E500008430443AC81AC8A4FF6FF400440B0898C
:101E60000443AC8201A8FEF7B4FFC648874202D102
:101E7000DDF810A001E0DDF80CA0A88900F4004016
:101E800040B10AEBCA0000EB0A1031684900B0FB10
:101E9000F1F807E00AEBCA0000EB0A10316889008C
:101EA000B0FBF1F86420B8FBF0F0040120096421D4
:101EB00001FB1089A88900F4004040B1322000EBFA
:101EC000C900B0FBF1F000F00700044308E0322045
:101ED00000EB09106421B0FBF1F000F00F000443A7
:101EE0002C8106B0BDE8F0874FF416510160002147
:101EF0008180C18001810C21418100218181704755
:101F000010B502460020108A4FF2FF0318400B88DC
:101F10004C8823438C882343CC8823431843108266
:101F200010BD0021018041808180C180704721B1B6
:101F3000828942F40052828104E082894DF6FF7367
:101F40001A4082817047F0B5034600240026002520
:101F5000002040F66A17B94200D100BF1846C1F30D
:101F6000421401F01F06012707FA06F5012C01D1E2
:101F70000C3004E0022C01D1103000E014301AB112
:101F800007682F43076002E00768AF430760F0BDB2
:101F90001AB1838A0B43838202E0838A8B43838254
:101FA0007047028A4FF6F0731A400282028A0A438F
:101FB0000282704782894FF2FF731A4082818289C0
:101FC0000A438281704721B1828942F002028281F4
:101FD00004E082894FF6FD731A4082817047028ABD
:101FE0004FF6DF731A400282028A0A430282704768
:101FF00021B1028A42F48042028204E0028A4BF656
:10200000FF731A4002827047C1F308028280704752
:1020100001468888C0F308007047818941F00101BA
:1020200081817047028BD2B20283028B42EA012285
:1020300002837047028B02F47F420283028B0A43C1
:102040000283704721B1828A42F02002828204E03A
:10205000828A4FF6DF731A408282704721B1828AEA
:1020600042F01002828204E0828A4FF6EF731A4037
:102070008282704721B1828A42F00802828204E0A3
:10208000828A4FF6F7731A408282704721B18289A3
:1020900042F40042828103E08289C2F30E0282810F
:1020A000704721B1828A42F40062828204E0828A0F
:1020B0004FF2FF731A4082827047828A4FF6FB7399
:1020C0001A408282828A0A438282704721B1828AC0
:1020D00042F00202828204E0828A4FF6FD731A40C7
:1020E0008282704702460020B1F5007F00D100BF18
:1020F00013880B400BB1012000E00020704701F471
:102100000072B2F5007F00D100BFCA430280704761
:1021100070B50246002400230025002040F66A1610
:10212000B14200D100BFC1F3421501F01F030126E7
:1021300006FA03F3012D02D19689334006E0022D01
:1021400002D1168A334001E0968A33400C120126F0
:1021500006FA04F41688344013B10CB1012000E0F3
:10216000002070BD10B50022002340F66A14A14281
:1021700000D100BF0A1201249440A3B2DC430480C2
:1021800010BD0000003801400044004000480040FD
:10219000004C00400050004010B56FF00400FEF706
:1021A00022F92E4800682E49B0FBF1F02D49087045
:1021B0000846007800EB4001C1EBC0104FF6FF71FC
:1021C00001EAC0002849088010BD0146254A12785E
:1021D0004A434FF0E0235A6100229A611A4612697D
:1021E00042F001021A6100BF4FF0E022106900F0D6
:1021F00001021AB100F48032002AF5D04FF0E0223B
:10220000126922F001024FF0E0231A6100229A6164
:1022100070470146144A12884A434FF0E0235A613E
:1022200000229A611A46126942F001021A6100BF47
:102230004FF0E022106900F001021AB100F4803280
:10224000002AF5D04FF0E022126922F001024FF08F
:10225000E0231A6100229A6170470000000000200C
:1022600000127A00280000202A000020014600BF4A
:10227000704700BF494A128802F04002002AF9D094
:10228000C2B2464B1B1D1A80704710B586B004467B
:10229000012144F20400FEF709FE4FF40070ADF88E
:1022A000140003208DF8160018208DF8170005A9DA
:1022B0003B48FEF73FFB4FF48060ADF8140004206C
:1022C0008DF8170005A93648FEF734FB25208DF858
:1022D000000003208DF801008DF8020001208DF828
:1022E00003006846FEF735F801940020ADF80800B9
:1022F000ADF80A00ADF80C00ADF810000C20ADF8F8
:102300000E0001A92548FFF786FD012240F2255164
:102310002248FFF718FE01212048FFF708FE06B00B
:1023200010BD10B540F225511C48FFF7F1FE10B367
:102330001A48FFF76DFEC4B21A48008800F4004046
:10234000C8B91848008800F4804060B10A2C03D056
:1023500000201449088020E01248008840F4004022
:102360001049088019E00D2C06D10E48008840F471
:1023700080400C49088010E00A480088C0F30D0036
:1023800009490C5407480088401C06490880084643
:102390000088C72801DD0020088010BD00380140FA
:1023A00000080140300000204400002001B502E098
:1023B0000098401E009000980028F9D108BDFFF752
:1023C000EBFE4FF4A060FDF7BFFF4FF4E130FFF7E5
:1023D0005CFF00F0CDFA4CF25031472000F026FBB4
:1023E00000F0EEF900F014FA002140F2833000F022
:1023F00029FA0821E348FEF74AFB4FF40071E1484F
:10240000FEF745FB64210807FFF77EFC6421DE48E8
:10241000FFF77EFC2021DB48FEF73BFB1021D9486B
:10242000FEF735FB4FF48071D648FEF732FB802172
:10243000D448FEF72CFBA3E10121D248FEF727FB8D
:102440000221D048FEF723FB4FF48061CD48FEF710
:102450001EFBCE480188CEA000F05AFBCE48018872
:10246000CEA000F055FB4FF6FF70FFF79FFF4FF631
:10247000FF70FFF79BFF4FF6FF70FFF797FF4FF6D8
:10248000FF70FFF793FF4FF6FF70FFF78FFF4FF6D8
:10249000FF70FFF78BFF4FF6FF70FFF787FF4FF6D8
:1024A000FF70FFF783FF4FF6FF70FFF77FFF4FF6D8
:1024B000FF70FFF77BFF4FF6FF70FFF777FF4FF6D8
:1024C000FF70FFF773FF4FF6FF70FFF76FFF4FF6D8
:1024D000FF70FFF76BFF4FF6FF70FFF767FF4FF6D8
:1024E000FF70FFF763FF4FF6FF70FFF75FFF4FF6D8
:1024F000FF70FFF75BFF4FF6FF70FFF757FF4FF6D8
:10250000FF70FFF753FF4FF6FF70FFF74FFF4FF6D7
:10251000FF70FFF74BFF4FF6FF70FFF747FF4FF6D7
:10252000FF70FFF743FF01219648FEF7B2FA4FF61E
:10253000FF70FFF73BFF4FF6FF70FFF737FF4FF6D7
:10254000FF70FFF733FF4FF6FF70FFF72FFF4FF6D7
:10255000FF70FFF72BFF4FF6FF70FFF727FF4FF6D7
:10256000FF70FFF723FF4FF6FF70FFF71FFF4FF6D7
:10257000FF70FFF71BFF4FF6FF70FFF717FF4FF6D7
:10258000FF70FFF713FF4FF6FF70FFF70FFF4FF6D7
:10259000FF70FFF70BFF4FF6FF70FFF707FF4FF6D7
:1025A000FF70FFF703FF4FF6FF70FFF7FFFE4FF6D8
:1025B000FF70FFF7FBFE4FF6FF70FFF7F7FE4FF6D9
:1025C000FF70FFF7F3FE4FF6FF70FFF7EFFE4FF6D9
:1025D000FF70FFF7EBFE4FF6FF70FFF7E7FE4FF6D9
:1025E000FF70FFF7E3FE4FF6FF70FFF7DFFE0221FB
:1025F0006448FEF74EFA4FF6FF70FFF7D7FE4FF62E
:10260000FF70FFF7D3FE4FF6FF70FFF7CFFE4FF6D8
:10261000FF70FFF7CBFE4FF6FF70FFF7C7FE4FF6D8
:10262000FF70FFF7C3FE4FF6FF70FFF7BFFE4FF6D8
:10263000FF70FFF7BBFE4FF6FF70FFF7B7FE4FF6D8
:10264000FF70FFF7B3FE4FF6FF70FFF7AFFE4FF6D8
:10265000FF70FFF7ABFE4FF6FF70FFF7A7FE4FF6D8
:10266000FF70FFF7A3FE4FF6FF70FFF79FFE4FF6D8
:10267000FF70FFF79BFE4FF6FF70FFF797FE4FF6D8
:10268000FF70FFF793FE4FF6FF70FFF78FFE4FF6D8
:10269000FF70FFF78BFE4FF6FF70FFF787FE4FF6D8
:1026A000FF70FFF783FE4FF6FF70FFF77FFE4FF6D8
:1026B000FF70FFF77BFE4FF480613248FEF7E9F9C7
:1026C0004FF6FF70FFF772FE4FF6FF70FFF76EFEDA
:1026D0004FF6FF70FFF76AFE4FF6FF70FFF766FEDA
:1026E0004FF6FF70FFF762FE4FF6FF70FFF75EFEDA
:1026F0004FF6FF70FFF75AFE4FF6FF70FFF756FEDA
:102700004FF6FF70FFF752FE4FF6FF70FFF74EFED9
:102710004FF6FF70FFF74AFE4FF6FF70FFF746FED9
:102720004FF6FF70FFF742FE4FF6FF70FFF73EFED9
:102730004FF6FF70FFF73AFE4FF6FF70FFF736FED9
:102740004FF6FF70FFF732FE4FF6FF70FFF72EFED9
:102750004FF6FF70FFF72AFE4FF6FF70FFF726FED9
:102760004FF6FF70FFF722FE4FF6FF70FFF71EFED9
:102770004FF6FF70FFF71AFE4FF6FF70FFF716FED9
:102780005AE60000000C0140000800404000002014
:10279000303A25640D0A000042000020313A2564D9
:1027A0000D0A0000704700BFFEE700BFFEE700BF54
:1027B000FEE700BFFEE770477047704770470000B4
:1027C00008B501211820FEF771FB01210846FEF72C
:1027D0006DFB0120ADF8000014208DF803000320EC
:1027E0008DF8020069460948FEF7A4F80220ADF80A
:1027F000000069460548FEF79DF84FF48060ADF88B
:10280000000069460148FEF795F808BD000C01403C
:1028100008B501210820FEF749FB4FF4F870ADF828
:10282000000010208DF8030003208DF80200694697
:102830000348FEF77FF840210148FEF728F908BD5C
:10284000000C014030B589B005460C460121084610
:10285000FEF739FB01210420FEF735FB0121092099
:10286000FEF724FB01213C48FEF735F94FF40070D8
:10287000ADF8200018208DF8230003208DF82200E9
:1028800008A93648FEF756F80820ADF820001820B1
:102890008DF8230003208DF8220008A92F48FEF7A9
:1028A00049F8ADF81850ADF814400020ADF81A0002
:1028B000ADF8160005A92A48FEF730FCADF818500F
:1028C000ADF814400020ADF81A00ADF8160005A9C7
:1028D0004FF08040FEF722FC7020ADF8040001208C
:1028E000ADF806000020ADF80C0001A91C48FEF769
:1028F0002CFD08211A48FFF7BCF801211848FEF703
:1029000069FF7020ADF804000120ADF8060000203A
:10291000ADF80C0001A94FF08040FEF77EFC0821C5
:10292000C806FFF790F801218807FFF753F8012147
:102930008807FEF74FFF01210A48FEF7CCF809B0DF
:1029400030BD01B508490098086008BD01B50749C8
:102950000098086008BD000000011800000C01404C
:102960000008004000023000340000203800002041
:1029700000B587B001214FF40170FEF797FA4FF4CC
:102980000040FEF7F7F90220ADF8040000208DF8B2
:10299000070001A92348FDF7CDFF2348FDF742FDBD
:1029A000002002908DF80C008DF80D004FF460208F
:1029B00004900020059001208DF8180002A91A4803
:1029C000FDF757FD01211848FDF77FFD1648FDF77B
:1029D0009EFD00BF1448FDF79FFD0028FAD1124864
:1029E000FDF7A4FD00BF1048FDF7A5FD0028FAD1B2
:1029F00007B000BD10B504460723012221460A484E
:102A0000FDF7CFFD01210848FDF79FFD00BF022122
:102A10000548FDF70BFF0028F9D00348FDF728FE15
:102A200010BD000000080140002401407FB50546AC
:102A30000C4601210220FEF746FAADF80850ADF829
:102A400004400020ADF80600ADF80A0001A91948BD
:102A5000FEF764FB012211461648FEF7D6FE01215F
:102A60001448FEF7B7FE1D208DF8000001208DF8F8
:102A7000010003208DF8020001208DF80300684654
:102A8000FDF767FC7FBD10B501210A48FFF76BF920
:102A9000012809D10020FFF7ADFF07490880012078
:102AA000FFF7A8FF0549088001210248FFF76CF9EC
:102AB00010BD000000040040400000204200002043
:102AC00030B50B46014600202022012409E021FAFE
:102AD00002F59D4205D303FA02F5491B04FA02F5FB
:102AE0002844151EA2F10102F1DC30BD064C074D51
:102AF00006E0E06840F0010394E8070098471034CE
:102B0000AC42F6D3FDF718FBA42C0008C42C000837
:102B10000FB4054B10B503A9044A029800F018F849
:102B200010BC5DF814FB0000732200082C0000208C
:102B300002E008C8121F08C1002AFAD17047704786
:102B4000002001E001C1121F002AFBD170470000E4
:102B50002DE9FF4F89B09B460446002506E0252855
:102B60000BD05A460B999047641C6D1C20780028A6
:102B7000F5D10DB02846BDE8F08F0027B8460122F8
:102B8000474900E0074314F8013F203B02FA03F0F5
:102B90000842F7D120782E2819D114F8010F47F0F8
:102BA00004072A280ED06FF02F022078A0F1300100
:102BB00009290CD808EB880102EB410100EB010860
:102BC000641CF2E70A98641C50F8048B0A90207881
:102BD0000028CED0642808D0692806D075281ED0D9
:102BE0005A460B9990476D1C58E00A994FF00A0914
:102BF00001C90A91002802DA40422D2102E039057C
:102C000004D52B218DF82010012103E0F90704D011
:102C10002021F7E78A4608AE0DE00021FAE70A997D
:102C20004FF00A0901C90A91F7E74946FFF748FF43
:102C3000303106F8011D0028F7D1ADEB060000F198
:102C40002009780701D44FF00108C84502DDA8EB40
:102C5000090000E000208046002706E008A85A4648
:102C6000C05D0B9990476D1C7F1C5745F6DB04E057
:102C700030205A460B9990476D1CB8F10001A8F11D
:102C80000108F5DC05E016F8010B5A460B99904750
:102C90006D1CB9F10001A9F10109F4DC641C65E7C0
:102CA00009280100C42C0008000000204400000096
:102CB000302B0008082D000844000020CC04000040
:102CC000402B000800A24A040000000000000000A1
:102CD00001020304060708090000000001020304C2
:102CE00001020304060708090204060800000000A8
:102CF00000000000000000009600000096000000A8
:082D00000000000000000000CB
:0400000508000131BD
:00000001FF
